:100000000C943C000C9459000C9459000C94590029
:100010000C94BF030C9459000C9459000C94590093
:100020000C9459000C9459000C9459000C949B03A7
:100030000C9459000C9459000C9459000C945900DC
:100040000C9459000C9459000C9459000C945900CC
:100050000C9459008F0097009F00A700AF00B700D5
:10006000BF00C700CF00D70027032E0335033C0392
:1000700043034A035103580311241FBECFE5D4E0C4
:10008000DEBFCDBF10E0A0E6B0E0E2ECF4E102C0DC
:1000900005900D92A436B107D9F720E0A4E6B0E0B0
:1000A00001C01D92A539B207E1F70E94C7020C9466
:1000B0005F0A0C9400008B9A8A9A929A939AB89A43
:1000C000B99ABA9ABB9ABC9ABD9ABE9AC39AC49A74
:1000D000C29AC09AC19AC59AC69AD09AD19AD29A0F
:1000E000D39AD49AD59AD89AD99ADA9ADB9ADC9A82
:1000F000DD9AA298A398A498A5988F98979A0895A6
:1001000083B3869586958F70089590E08A30910527
:1001100008F054C0FC01E65DFF4F0C94220AC3981E
:10012000C498C298C098C198C598C69A0895C39AB1
:10013000C498C298C09AC19AC59AC69A0895C3989D
:10014000C498C29AC098C198C59AC6980895C39891
:10015000C498C298C098C19AC59AC6980895C39A7F
:10016000C498C298C09AC19AC598C6980895C39871
:10017000C49AC298C098C19AC598C6980895C39861
:10018000C49AC298C098C198C598C6980895C39853
:10019000C498C298C09AC19AC59AC69A0895C3983D
:1001A000C498C298C098C198C598C6980895C39835
:1001B000C498C298C098C19AC598C6980895CF921D
:1001C000DF92FF920F931F93CF93DF938C01EB018C
:1001D0009C01ADECBCEC0E94280A969587959695FB
:1001E0008795969587959C01220F331F880F991F3D
:1001F000880F991F880F991F820F931F202F281B8C
:10020000822F0E948500D89884E191E00197F1F750
:100210000000D89A6801D694C794D694C7949601E2
:10022000ABE7B4E10E94280A969587950F2EF4E675
:10023000FF2EF02DF89E9001F99E300D1124C8017B
:10024000821B930B9C01ADECBCEC0E94280A969596
:10025000879596958795969587950E948500D9985C
:1002600084E191E00197F1F70000D99A9601ABE79C
:10027000B4E10E94280A969587950E948500DA9835
:1002800084E191E00197F1F70000DA9A9E01ADEC6C
:10029000BCEC0E94280A9695879596958795969529
:1002A00087959C01220F331F880F991F880F991F74
:1002B000880F991F820F931F2C2F281B822F0E94BB
:1002C0008500DB9884E191E00197F1F70000DB9A6B
:1002D0008E0116950795169507959801ABE7B4E141
:1002E0000E94280A96958795F89E9001F99E300DF8
:1002F0001124CE01821B930B9C01ADECBCEC0E943F
:10030000280A9695879596958795969587950E9444
:100310008500DC9884E191E00197F1F70000DC9A18
:100320009801ABE7B4E10E94280A969587950E9450
:100330008500DD9884E191E00197F1F70000DD9AF6
:10034000DF91CF911F910F91FF90DF90CF90089593
:10035000C39AC49AC29AC098C198C598C698D898AA
:1003600084E191E00197F1F70000D89AC398C49A0C
:10037000C29AC098C198C598C698D99884E191E06E
:100380000197F1F70000D99AC398C49AC298C0980F
:10039000C19AC598C698DA9884E191E00197F1F77F
:1003A0000000DA9AC39AC49AC298C098C198C59AB4
:1003B000C69ADB9884E191E00197F1F70000DB9A9F
:1003C000C398C498C298C09AC198C598C698DC983A
:1003D00084E191E00197F1F70000DC9AC39AC49A96
:1003E000C298C098C198C598C698DD9884E191E0FC
:1003F0000197F1F70000DD9A0895CF93DF93EC01A8
:100400009C013695279536952795ABE7B4E10E9478
:10041000280A9695879544E6489F9001499F300D9C
:100420001124CE01821B930B9C01ADECBCEC0E940D
:10043000280A9695879596958795969587950E9413
:100440008500D89898EB9A95F1F70000D89A9E010C
:10045000369527953695279536952795A5ECB0E2E4
:100460000E94280A929582958F7089279F7089270C
:1004700048EE53E0849F9001859F300D949F300D8E
:100480001124CE01821B930B9C013695279536953E
:100490002795ABE7B4E10E94280A969587950E94BC
:1004A0008500D99898EB9A95F1F70000D99A9E01AA
:1004B000329522952F7023273F702327A7E4B3E0BE
:1004C0000E94280A96958795969587959695879583
:1004D00040E157E2849F9001859F300D949F300D3D
:1004E0001124CE01821B930B9C01369527953695DE
:1004F000279536952795A5ECB0E20E94280A92959B
:1005000082958F7089279F7089270E948500DA98CD
:1005100098EB9A95F1F70000DA9A80E00E94850046
:10052000DB9828EB2A95F1F70000DB9A80E00E9427
:100530008500DC9888EB8A95F1F70000DC9A9E0133
:10054000ADECBCEC0E94280A969587959695879508
:10055000969587959C01220F331F880F991F880F4E
:10056000991F880F991F820F931F2C2F281B822FF2
:100570000E948500DD9888EB8A95F1F70000DD9AEE
:10058000DF91CF91089588E181BD11BC08958BE082
:1005900090E00E94370A019631F460E670E08BE04B
:1005A00090E00E943D0A8BE090E00E94370A9C0197
:1005B000909361008093600044E6429FC001439F96
:1005C000900D1124A0E0B0E080938C0090938D00FA
:1005D000A0938E00B0938F000E945B0084E00E9485
:1005E0005C070E946C0778940E94800080936300EF
:1005F000879904C0815F8093630075C0811173C0C7
:1006000081E0809364000FC0809362008FEF9FE7CA
:1006100023E4815090402040E1F700C000000E9498
:100620008000809363008091630090916200891341
:10063000EBCF9FEF980F983038F790E0FC0131979F
:10064000E830F105D8F5EC5CFF4F0C94220A8CE001
:1006500090E0909361008093600030C088E190E06A
:10066000909361008093600029C080E390E09093B4
:1006700061008093600022C080E690E0909361006A
:10068000809360001BC080EC90E0909361008093A9
:10069000600014C080E891E0909361008093600056
:1006A0000DC080E492E0909361008093600006C0EA
:1006B00080E894E090936100809360006091600016
:1006C000709161008BE090E00E943D0A82E080938F
:1006D00064000E9468079398809160009091610087
:1006E0000E94FD01F9CF789460E177E280E090E02C
:1006F0000E94CD0660918C0070918D0080918E00DB
:1007000090918F000E94EB070E94D0069298CFE054
:10071000C1BD61E970E082E790E00E94DE060E94C0
:10072000C3028FEF9FEB26E0815090402040E1F71D
:1007300000C00000EDCF1F920F920FB60F92112450
:100740008F93EF93FF9380916B00811104C01092FF
:100750006D0010926C00E0916B008CB1F0E0E858F5
:10076000FF4F808380916B008F5F80936B00FF91C0
:10077000EF918F910F900FBE0F901F9018951F92C1
:100780000F920FB60F921124CF92DF92EF92FF9249
:100790000F931F932F933F934F935F936F937F9389
:1007A0008F939F93AF93BF93CF93EF93FF938091DA
:1007B0006400813049F58091650090916600019652
:1007C00090936600809365000E94A8018091650067
:1007D000909166008436910510F493988AC08091B8
:1007E0006500909166008436910548F0809165001F
:1007F00090916600883C910510F4939A7AC010920B
:1008000066001092650075C080916400811171C00E
:1008100080916B00882351F080916C0090916D0065
:10082000019690936D0080936C0004C010926D004F
:1008300010926C0080916C0090916D00409798F040
:1008400090916A0080916B00981759F080916B002D
:1008500080936A0081E08093690010926D0010928D
:100860006C0010926B008091670090916800019677
:100870009093680080936700809167009091680072
:10088000843F914060F120E030E040E251E460912B
:1008900072007091730080917400909175000E94B5
:1008A00093090E94D608709371006093700020E055
:1008B00030E040E251E460919100709192008091AB
:1008C0009300909194000E9493090E94D60870931F
:1008D0006F0060936E001092680010926700609144
:1008E00070007091710080916E0090916F000E9475
:1008F000DF00809169008130C1F5929AC0916A0051
:1009000020E030E048EC52E4609191007091920058
:1009100080919300909194000E9493090E94D608C0
:100920006B017C0120E030E048EC52E46091720001
:100930007091730080917400909175000E949309EA
:100940000E94D60886019B014C2F68E770E08091D9
:1009500063000E94040689E995E10197F1F700C060
:100960001092690010926A009298FF91EF91CF91D6
:10097000BF91AF919F918F917F916F915F914F91B7
:100980003F912F911F910F91FF90EF90DF90CF90AB
:100990000F900FBE0F901F90189516161706DCF4D7
:1009A000FC01680F791F8FEF9FEF2191822728E0CC
:1009B00030E080FF07C09695879541E0842740EAA4
:1009C000942702C0969587952150310991F7E61733
:1009D000F70759F708958FEF9FEF0895EF92FF9271
:1009E0000F931F93CF93DF93CDB7DEB72A970FB640
:1009F000F894DEBF0FBECDBF623071F118F46130E4
:100A000041F092C0633009F44AC0643009F46AC00E
:100A10008BC0898381E88A8381E08B8363E070E007
:100A2000CE0101960E94CD048C8363E070E0CE017C
:100A300001960E94CD049D838E010F5F1F4F7E01A2
:100A400086E0E80EF11CF80181918F010E94F30706
:100A5000E016F106C1F768C0898381E88A8382E0E5
:100A60008B8363E070E0CE0101960E94CD048C83FD
:100A700063E070E0CE0101960E94CD049D838E015B
:100A80000F5F1F4F7E01F6E0EF0EF11CF801819120
:100A90008F010E94F3070E151F05C1F745C089831A
:100AA00084E88A8383E08B8363E070E0CE01019663
:100AB0000E94CD048C8363E070E0CE0101960E9419
:100AC000CD049D838E010F5F1F4F7E01F6E0EF0E78
:100AD000F11CF80181918F010E94F307E016F106E5
:100AE000C1F722C0898384E88A8384E08B8363E032
:100AF00070E0CE0101960E94CD048C8363E070E02B
:100B0000CE0101960E94CD049D838E010F5F1F4F81
:100B10007E01F6E0EF0EF11CF80181918F010E9439
:100B2000F3070E151F05C1F72A960FB6F894DEBF1E
:100B30000FBECDBFDF91CF911F910F91FF90EF902E
:100B400008958F929F92AF92BF92CF92DF92EF92D1
:100B5000FF920F931F93CF93DF93CDB7DEB7ADB660
:100B6000BEB6462F50E02DB73EB7241B350B0FB64F
:100B7000F8943EBF0FBE2DBFEDB7FEB731966F01A3
:100B8000662321F1FC0186016150E62EF12C2FEF46
:100B9000E21AF20A9C012E0D3F1DD60191919D9300
:100BA000E217F307D9F709C0F80181918F010E947C
:100BB000F307E016F106C1F70FC0BA01C6010E94A3
:100BC000CD04882E992EEC0CFD1CEECFBA01CF017E
:100BD0000E94CD04882E992E882D0E94F307892D1E
:100BE0000E94F3070FB6F894BEBE0FBEADBEDF91F4
:100BF000CF911F910F91FF90EF90DF90CF90BF901A
:100C0000AF909F908F9008958F929F92AF92BF92D6
:100C1000CF92DF92EF92FF920F931F93CF93DF93C8
:100C2000CDB7DEB72A970FB6F894DEBF0FBECDBFA3
:100C3000FB01C080C8129EC0832E922ED42E7B0151
:100C4000A42EB12CB50162507109CF010E94CD04D0
:100C5000F701EA0DFB1D3197208130E0492F552720
:100C60002417350709F086C0AE0CBF1CF50132977A
:100C7000208130E099272817390709F07BC0F8E078
:100C8000DF1274C0F7018181843009F06AC02281CB
:100C900030E0322F22278381280F311D848190E09C
:100CA000982F88274581840F911D2115310589F5DD
:100CB000009751F4C98284E08A831B8263E0CE01ED
:100CC00001960E94A10556C08130910569F4C98240
:100CD00084E08A8382E08B838C829D8265E0CE01F2
:100CE00001960E94A10546C0029771F4C98284E072
:100CF0008A838B838C829D821E830F8367E0CE0163
:100D000001960E94A10536C063E08C2D0E94EE047E
:100D100031C02130310501F5009751F4C98284E0DA
:100D20008A831B8263E0CE0101960E94A10522C046
:100D3000019769F4C98284E08A8382E08B831C83F3
:100D40000D8365E0CE0101960E94A10513C063E00A
:100D50008C2D0E94EE040EC062E08C2D0E94EE04E9
:100D600009C061E08C2D0E94EE0404C064E08C2D6B
:100D70000E94EE042A960FB6F894DEBF0FBECDBFD8
:100D8000DF91CF911F910F91FF90EF90DF90CF9067
:100D9000BF90AF909F908F9008950E947007089524
:100DA0000E948A078AE80E94930780E30E949307C3
:100DB00082EA0E9493070E9490070895CF92DF92E3
:100DC000EF92FF920F931F93CF93DF937C01EB0180
:100DD0000E948A078AE80E9493078CE20E94930788
:100DE00086E00E9493070E9490078CEC9AE001979E
:100DF000F1F700C000000E948A078BE80E94930769
:100E0000EFEFFBE63197F1F700C000000E949A0770
:100E1000D82E0E949A07C82E0E949A070E949A070D
:100E2000182F0E949A07082F0E94A1070E9490077E
:100E30006D2D70E0762F66276C0D711D80E090E0BF
:100E40000E94050920E03FEF4FE757E40E94640845
:100E500020E030E04FE253E40E94930920E030E0CC
:100E600044E352E40E94F707F701608371838283B1
:100E70009383612F70E0762F6627600F711D80E0ED
:100E800090E00E94050920E03FEF4FE757E40E9401
:100E9000640820E030E048EC52E40E949309688343
:100EA00079838A839B83DF91CF911F910F91FF906C
:100EB000EF90DF90CF90089595B5987F95BD95B54B
:100EC000892B85BD14BC89B7806489BF7894089547
:100ED00089B78F7B89BF089589B7806489BF0895DA
:100EE0009B01AC0111B860E070EC88EA90E00E94D0
:100EF000000ADA01C9014097A109B109689412F802
:100F0000B695A795979587951694D1F780B984E003
:100F100086BF089584EA86BF06B607FEFDCF089512
:100F200084E986BF089583B984E886BF06B607FEC4
:100F3000FDCF089584EC86BF06B607FEFDCF83B1D2
:100F4000089584E886BF06B607FEFDCF83B10895F5
:100F50000F931F938B019C01DC01CB0180569940BC
:100F6000A109B109813A984BA140B10568F580E02B
:100F700090E0DC01801B910BA20BB30B880F991F33
:100F8000AA1FBB1F880F991FAA1FBB1F880F991F7D
:100F9000AA1FBB1FBC01CD01705487459F4F000F96
:100FA000111F221F331F000F111F221F331FA90102
:100FB0009801220F331F441F551F220F331F441F58
:100FC000551F0E94000A02C027E430E029B930BD55
:100FD0001F910F91089528E92AB926E820BD1BB872
:100FE0000E94A80708955D9BFECF8CB908955058C4
:100FF000BB27AA270E940F080C9459090E944B098D
:1010000038F00E94520920F039F49F3F19F426F479
:101010000C9448090EF4E095E7FB0C944209E92F83
:101020000E946A0958F3BA17620773078407950785
:1010300020F079F4A6F50C948C090EF4E0950B2EB3
:10104000BA2FA02D0B01B90190010C01CA01A0011A
:101050001124FF27591B99F0593F50F4503E68F175
:101060001A16F040A22F232F342F4427585FF3CFB6
:10107000469537952795A795F0405395C9F77EF487
:101080001F16BA0B620B730B840BBAF09150A1F0D0
:10109000FF0FBB1F661F771F881FC2F70EC0BA0F56
:1010A000621F731F841F48F4879577956795B795DE
:1010B000F7959E3F08F0B0CF9395880F08F09927D9
:1010C000EE0F9795879508950E9478080C9459091A
:1010D0000E94520958F00E944B0940F029F45F3FEA
:1010E00029F00C94420951110C948D090C94480973
:1010F0000E946A0968F39923B1F3552391F3951B74
:10110000550BBB27AA2762177307840738F09F5F28
:101110005F4F220F331F441FAA1FA9F335D00E2E95
:101120003AF0E0E832D091505040E695001CCAF702
:101130002BD0FE2F29D0660F771F881FBB1F2617C5
:1011400037074807AB07B0E809F0BB0B802DBF019C
:10115000FF2793585F4F3AF09E3F510578F00C946B
:1011600042090C948D095F3FE4F3983ED4F38695D1
:1011700077956795B795F7959F5FC9F7880F911D8C
:101180009695879597F90895E1E0660F771F881F78
:10119000BB1F621773078407BA0720F0621B730B2B
:1011A000840BBA0BEE1F88F7E09508950E94720930
:1011B00088F09F5798F0B92F9927B751B0F0E1F018
:1011C000660F771F881F991F1AF0BA95C9F714C0C8
:1011D000B13091F00E948C09B1E008950C948C0913
:1011E000672F782F8827B85F39F0B93FCCF3869501
:1011F00077956795B395D9F73EF49095809570955E
:1012000061957F4F8F4F9F4F0895E89409C097FBDA
:101210003EF490958095709561957F4F8F4F9F4FCD
:101220009923A9F0F92F96E9BB279395F695879511
:1012300077956795B795F111F8CFFAF4BB0F11F4D4
:1012400060FF1BC06F5F7F4F8F4F9F4F16C088237B
:1012500011F096E911C0772321F09EE8872F762FB1
:1012600005C0662371F096E8862F70E060E02AF0F2
:101270009A95660F771F881FDAF7880F96958795DE
:1012800097F9089597F99F6780E870E060E0089506
:101290009FEF80EC089500240A941616170618068E
:1012A0000906089500240A9412161306140605066A
:1012B0000895092E0394000C11F4882352F0BB0FFB
:1012C00040F4BF2B11F460FF04C06F5F7F4F8F4F5E
:1012D0009F4F089557FD9058440F551F59F05F3F99
:1012E00071F04795880F97FB991F61F09F3F79F048
:1012F00087950895121613061406551FF2CF4695CA
:10130000F1DF08C0161617061806991FF1CF86954B
:101310007105610508940895E894BB27662777272F
:10132000CB0197F908950E94A6090C9459090E94CF
:101330004B0938F00E94520920F0952311F00C94CB
:1013400042090C94480911240C948D090E946A09E1
:1013500070F3959FC1F3950F50E0551F629FF00108
:10136000729FBB27F00DB11D639FAA27F00DB11D21
:10137000AA1F649F6627B00DA11D661F829F2227AA
:10138000B00DA11D621F739FB00DA11D621F839F31
:10139000A00D611D221F749F3327A00D611D231F07
:1013A000849F600D211D822F762F6A2F11249F5755
:1013B00050409AF0F1F088234AF0EE0FFF1FBB1F58
:1013C000661F771F881F91505040A9F79E3F510517
:1013D00080F00C9442090C948D095F3FE4F3983E31
:1013E000D4F3869577956795B795F795E7959F5FC1
:1013F000C1F7FE2B880F911D9695879597F9089553
:10140000A1E21A2EAA1BBB1BFD010DC0AA1FBB1F08
:10141000EE1FFF1FA217B307E407F50720F0A21B7A
:10142000B30BE40BF50B661F771F881F991F1A94E7
:1014300069F760957095809590959B01AC01BD0111
:10144000CF010895EE0FFF1F0590F491E02D099450
:10145000A29FB001B39FC001A39F700D811D1124F5
:10146000911DB29F700D811D1124911D0895A8E159
:10147000B0E042E050E00C94440A0E94520A272F48
:101480000C94530ADC01CB01FC01E199FECF06C0AC
:10149000FFBBEEBBE09A31960DB20D924150504029
:1014A000B8F70895262FE199FECF9FBB8EBB2DBBC9
:1014B0000FB6F894E29AE19A0FBE01960895F89457
:0214C000FFCF5C
:0414C2006000FF01C6
:00000001FF
